:020000040000FA
:100000000C9454020C94271E0C947C020C947C02D9
:100010000C94591E0C947C020C947C020C947C026F
:100020000C947C020C947C020C947C020C947C0258
:100030000C947C020C947C020C947C020C947C0248
:100040000C94C21C0C947C020C94901C0C946A1CA2
:100050000C947C020C947C020C947C020C947C0228
:100060000C940C1D0C947C02084AD73B3BCE016ECD
:1000700084BCBFFDC12F3D6C74319ABD56833DDAFF
:100080003D00C77F11BED9E4BB4C3E916BAAAABE0E
:10009000000000803F05A84CCDB2D44EB93836A937
:1000A000020C50B9918688083CA6AAAA2ABE000074
:1000B00000803F004E4F542044455445435445442E
:1000C0000050414C004E5453430053493A004944B8
:1000D0003A00202020202B50495443482046554CBC
:1000E0004C00202020202B5941572052494748548A
:1000F000004D454E553A54485254204D4944444CC5
:100100004500004D572D4F5344202D2052322E30A4
:100110002E302E30004F4E004F4646005445585466
:1001200020414C41524D5300414D5053004D4148E8
:1001300020583130300054494D4552005350454508
:100140004400414C544954554445205831300044F2
:10015000495354414E434520583130300041444AC0
:10016000555354205A45524F0041444A5553542048
:10017000414D5053005345542052535349204D494B
:100180004E005345542052535349204D415800438B
:10019000414C20525353490043454C4C5300414479
:1001A0004A555354205649440041444A555354201B
:1001B0004D41494E004D41494E20564F4C5453201D
:1001C000414C41524D0052535349204D494E005627
:1001D0004F4C54414745204D494E004D4158204118
:1001E0004D5053004D41482055534544004D415812
:1001F000205350454544004D415820414C54004D3A
:100200004158204449535400544F542044495354B6
:1002100000464C592054494D4500414C41524D53E4
:100220000043555252454E54005253534900564FC5
:100230004C5441474500535441545300204D4953B9
:1002400053494F4E004155544F20484F4C440041B4
:1002500055544F2052544C004641494C5341464559
:1002600000505834200053544142004F464642004B
:100270004143524F004C414E44005245544C004DB6
:10028000495353004C4F495400544B4F4600504F74
:10029000534300414C5443004D414E550054555278
:1002A000544C450020004C4F5720564F4C5453009F
:1002B0004C4F57205341545300204E4F204750532A
:1002C000004E4F2044415441002041524D454400CE
:1002D00044495341524D4544000020C032C034C00F
:1002E000B6C08F00AD002400710028C0CBC0CAC0CA
:1002F00060C142017EC137C12401420102C00FC06A
:100300004CC107016AC12E0171C178C1C2C0BBC016
:10031000BB00030007005C00FB0006013EC0340088
:10032000C30064C01001BAC05601DC00E900F2004D
:10033000D40098008000DA0052009E007A00460047
:1003400064005C0082004B0000009600000000008A
:100350000000A30312010000220208010004C801EA
:10036000030100010101C800326402000200020121
:100370000001000701008000000001080000001ECD
:100380001E144D574F534400202020200000000031
:100390000106000001000003000000000800020147
:1003A00000000304070000000000000000C500C1B9
:1003B00000B40003010201F100E200D2000201CE0C
:1003C00000CA000201180115014F0142013C01362B
:1003D000012D0128011C0169015D018F0182017558
:1003E00001B501A9019E01980111020802FF01F760
:1003F00001ED01E401DB01CF01C6013C504147455D
:100400003E00534156452B455849540045584954E0
:100410000036022E02290221021A02D90258024F86
:100420000245023C02980293028E02890284027FF6
:10043000027A02750270026B02660261021D1A1DC9
:100440001C1D191D1C1D1B1D1C1D181D1C1D1A1DEE
:100450001C1D191D1C1D1B1DD902D002C902C10281
:10046000B902B002A602A4029D020000000025000D
:1004700028002B0000000000240027002A000404AC
:10048000040404040404020202020202030303033C
:100490000303010204081020408001020408102018
:1004A000010204081020C51E11241FBECFEFD8E0A2
:1004B000DEBFCDBF11E0A0E0B1E0EAEBF4E702C09F
:1004C00005900D92A03BB107D9F727E0A0EBB1E072
:1004D00001C01D92A33CB207E1F712E0C4E5D2E0EF
:1004E00004C02197FE010E94F639C335D107C9F730
:1004F0000E94F21E0C945B3A0C9400000000CF9313
:10050000DF9390E0FC01EE56FB4F249182589B4F05
:10051000FC0184918823C1F090E0880F991FFC01B1
:10052000EC58FB4FC591D491FC01E659FB4FA591C6
:10053000B4919FB7F8948881E22FE0958E23888349
:100540008C91E823EC939FBFDF91CF910895AF92F8
:10055000BF92CF92DF92EF92FF920F931F93CF93B0
:10056000DF936C017B018B01040F151FEB015E0112
:10057000AE18BF08C017D10759F06991D601ED91A7
:10058000FC910190F081E02DC6010995892B79F746
:10059000C501DF91CF911F910F91FF90EF90DF90F8
:1005A000CF90BF90AF900895FC01538D448D252FBF
:1005B00030E0842F90E0821B930B541710F0CF96FD
:1005C000089501970895FC01918D828D981761F02F
:1005D000A28DAE0FBF2FB11D5D968C91928D9F5F46
:1005E0009F73928F90E008958FEF9FEF0895FC0125
:1005F000918D828D981731F0828DE80FF11D858DD8
:1006000090E008958FEF9FEF0895FC01918D228D6A
:10061000892F90E0805C9F4F821B91098F739927EF
:10062000089582E297E00E94050321E0892B09F4F6
:1006300020E0822F089580E090E0892B29F00E942D
:10064000110381110C9400000895FC01A48DA80FE2
:10065000B92FB11DA35ABF4F2C91848D90E0019604
:100660008F739927848FA689B7892C93A089B18924
:100670008C91837080648C93938D848D981306C0C5
:100680000288F389E02D80818F7D80830895EF9229
:10069000FF920F931F93CF93DF93EC0181E0888F3C
:1006A0009B8D8C8D98131AC0E889F989808185FF0C
:1006B00015C09FB7F894EE89FF896083E889F989AE
:1006C00080818370806480839FBF81E090E0DF91B0
:1006D000CF911F910F91FF90EF900895F62E0B8D03
:1006E00010E00F5F1F4F0F731127E02E8C8D8E11BE
:1006F0000CC00FB607FCFACFE889F989808185FF25
:10070000F5CFCE010E942503F1CFEB8DEC0FFD2F2D
:10071000F11DE35AFF4FF0829FB7F8940B8FEA89DF
:10072000FB8980818062CFCF682F82E297E00C94B2
:100730004703CF93DF93EC01888D8823B9F0AA8912
:10074000BB89E889F9898C9185FD03C0808186FD8C
:100750000DC00FB607FCF7CF8C9185FFF2CF8081DB
:1007600085FFEDCFCE010E942503E9CFDF91CF9128
:10077000089590E0FC01E756FC4F2491FC01EE56F1
:10078000FB4F3491FC01E258FB4FE491EE23C9F09A
:10079000222339F0233001F1A8F4213019F122305D
:1007A00029F1F0E0EE0FFF1FE659FB4FA591B49140
:1007B0008FB7F894EC91611126C030953E233C939D
:1007C0008FBF08952730A9F02830C9F0243049F7A9
:1007D000809180008F7D03C0809180008F7780930F
:1007E0008000DFCF84B58F7784BDDBCF84B58F7D6C
:1007F000FBCF8091B0008F778093B000D2CF8091F3
:10080000B0008F7DF9CF3E2BDACF3FB7F8948091BF
:100810004B0290914C02A0914D02B0914E0226B530
:10082000A89B05C02F3F19F00196A11DB11D3FBF28
:10083000BA2FA92F982F8827BC01CD01620F711DF7
:10084000811D911D42E0660F771F881F991F4A95F1
:10085000D1F708958F929F92AF92BF92CF92DF927D
:10086000EF92FF924B015C010E9405046B017C0139
:100870000E9405046C197D098E099F09683E73402A
:1008800081059105A8F321E0821A9108A108B10819
:1008900088EEC80E83E0D81EE11CF11C811491047F
:1008A000A104B10429F7FF90EF90DF90CF90BF90A3
:1008B000AF909F908F9008952FB7F8946091470262
:1008C000709148028091490290914A022FBF089589
:1008D0002091FC01260F3327331F21323105ECF420
:1008E00020912002FC0190E080E0243069F082E059
:1008F0000895A091FC012191AC0144525E4FA40FD8
:10090000B52FB11D2C930196861798F38091FC01A9
:10091000680F6093FC0180E0089581E008950895D8
:100920008FEF9FEF08958FEF9FEF08958091D5018E
:1009300090E09195819591090895CF93DF93CB0134
:10094000EA01642F0E946804CE01DF91CF910895DF
:10095000CF93DF931F92CDB7DEB7698361E0CE01FD
:1009600001960E94680481E090E00F90DF91CF91A2
:10097000089590E080E00895CF93DF9300D000D0F9
:10098000CDB7DEB7E82FF0E0EC5BF94F80818983CB
:1009900081818A8382818B8383818C8369817A813F
:1009A0008B819C810F900F900F900F90DF91CF91D2
:1009B0000895CF93DF9300D000D0CDB7DEB7E82FF6
:1009C000F0E0EC5BF94F8081898381818A838281A9
:1009D0008B8383818C8369817A818B819C810F9049
:1009E0000F900F900F90DF91CF910895E8E3F6E01C
:1009F000448155819A012827C90164E0880F991F15
:100A00006A95E1F7807F9F70822793279927382F77
:100A10002227BC01A3E0660F771FAA95E1F72627DE
:100A20003727452F55272427352744E09695879566
:100A30004A95E1F782279327958384830895CF927F
:100A4000DF92EF92FF92E8E3F6E02681378182277A
:100A5000482F50E070E060E0DB01CA01689413F8B1
:100A6000880F991FAA1FBB1F1694D1F79927AA2791
:100A7000BB2784279527A627B7274427582F692FF8
:100A80007A2F6C017D0163E0CC0CDD1CEE1CFF1C99
:100A90006A95D1F74C255D25232F3327422753270D
:100AA00024E0B595A795979587952A95D1F7842742
:100AB000952797838683FF90EF90DF90CF900895DE
:100AC000CF93C82F90E00E941F056C2F82E297E021
:100AD000CF910C9447031F93CF93DF93172FD82FF9
:100AE000C92F862F0E946005812F0E9460058D2FDF
:100AF0000E9460058C2FDF91CF911F910C946005AF
:100B00008627423051F428E030E095ED87FF08C099
:100B1000880F892721503109C9F7809388060895E5
:100B2000880FF8CF6091D40182E297E00C944703DC
:100B3000CF93C82F682F82E297E00E9447038091ED
:100B4000D4018C278093D401CF910895CF93C92FDE
:100B50000E9498058C2FCF910C949805CF93DF932A
:100B6000D82FC62F84E290E00E9494038DE490E099
:100B70000E9494038CE390E00E9494031092D401AD
:100B80008C2F0E9498058D2F0E949805C11104C0DA
:100B9000DF91CF910C949205DF91CF910895E09170
:100BA000570581E08E0F80935705F0E0EC5BF94F1D
:100BB00080810895CF93DF930E94CF05C82FD0E0A6
:100BC0000E94CF059E01382BC901DF91CF91089576
:100BD000CF92DF92EF92FF920E94DA056C01F12C26
:100BE000E12C0E94DA05B0E0A0E0772766276C29A7
:100BF0007D298E299F29FF90EF90DF90CF90089557
:100C0000472F862790E1899FB00111248627682FFE
:100C100070E0962F88279B0153E0220F331F5A95CF
:100C2000E1F78227932730E084279327E4E0759546
:100C30006795EA95E1F7862797270895E82FF0E072
:100C4000EE0FFF1FEC59FB4F208131812227307CB2
:100C500081E02115304C09F080E0089580E0E82F14
:100C6000F0E0E25FF84F9081992311F08F5FF7CFAA
:100C70000895EF92FF920F931F93CF93DF93FB01A1
:100C8000C0E097FF04C0919581959109C1E0DF0113
:100C9000A40FB11D1C92DEE20AE010E0421306C070
:100CA0004150DF01A40FB11DDC9320E03FEF340F72
:100CB0007F01E30EF11CB8010E94E239805DD7018B
:100CC0008C93CB013323C1F0211114C0009791F410
:100CD000CC2339F03EEF340FDF01A30FB11D8DE2BD
:100CE0008C9380E2332341F03150DF01A30FB11D1B
:100CF0008C93F8CF432FD2CFCF01DF91CF911F91AB
:100D00000F91FF90EF9008950F931F93CF93DF9370
:100D1000162FD42FC22F20E042E06EE077E090E063
:100D20000E943906C093100720E042E061E177E0BD
:100D3000812F90E00E9439060023F1F0C093130741
:100D400020E042E064E177E08D2F90E00E943906D8
:100D500010921607EEE0F7E080E39191903219F4DB
:100D6000DF0111978C9397E0E831F907B1F7DF9134
:100D7000CF911F910F91089510921307EBCFDB01D4
:100D8000A658BD4FFC0124910196222311F02D930A
:100D9000F9CF0895DC01FB01E658FD4F9D919923A1
:100DA00011F09193FBCF0895EF92FF920F93CF93A1
:100DB000DF938DE1E82E85E0F82E01E02AE3F701CC
:100DC0004285618580850E948406C091A204D091ED
:100DD000A304D170BE018EE097E00E94CA062FE204
:100DE000F7014481668187810E948406BE01625EAC
:100DF0007F4F8EE097E0DF91CF910F91FF90EF90C2
:100E00000C94CA06EF92FF920F931F93CF93DF9338
:100E1000EA01122F60312EE072078105910540F042
:100E20002CE330E040E050E00E94D535CA01B90122
:100E30002CE330E040E050E00E94D535F22EE62E63
:100E4000112351F010930E0710920F07BE018EE090
:100E500097E00E94CA06219600E02AE340E06E2D4A
:100E60008F2D0E948406BE018EE097E0DF91CF9126
:100E70001F910F91FF90EF900C94CA06CF92DF92D2
:100E8000EF92FF92CF93CDE0C81BE82FF0E0E55F33
:100E9000F84F8081811179C08091F60581117FC062
:100EA000C090DE04D090DF04F12CE12C81E0E0E082
:100EB00090E1C9169EE0D906E104F1040CF44BC0A0
:100EC000EF5F833009F047C0C090F404D090F50480
:100ED000E090F604F090F70420E030E048EC52E4B3
:100EE000C701B6010E94AF3818160CF072C020E09E
:100EF00030E044EB53E4C701B6010E94EF366B01CA
:100F00007C016091DD0684E6689FB0011124072E04
:100F1000000C880B990B0E949937A70196010E943B
:100F200006360E94613720910F013091100150E088
:100F300040E097FF03C060E070E0CB010E94A4395D
:100F40000E949737A70196010E94EF360E946137F1
:100F50006B017C01E4E0AC2FB0E0AA0FBB1FAC59E1
:100F6000BB4F4D915C91411592E05907B8F1F0E00B
:100F7000E95CFE4F51702081C701B601CF91FF900F
:100F8000EF90DF90CF900C940207813009F488CF66
:100F9000C12CD12C7601E0E0823009F092CF809113
:100FA0000F01909110016C01F12CE12C2091F406BD
:100FB000222361F06CE370E00E94CE3926171706F9
:100FC00009F020F480919106811108C082E0E2E0EE
:100FD0006FCFE4E0C12CD12C7601BDCFCF91FF9033
:100FE000EF90DF90CF900895A7EFB6E0EEE0F7E046
:100FF0002D91219327E0E831F207D1F710921807DD
:10100000BC018EE097E00C94CA068F929F92AF923B
:10101000BF92CF92DF92EF92FF920F931F93CF93E5
:10102000DF938C01F22EDBEC211101C0DAECC0E081
:1010300077FF08C070956095509541955F4F6F4F51
:101040007F4FC1E0CB01BA0124E630E040E050E040
:101050000E94AB35CA01B90110921907CF0DEC2FD0
:10106000F0E0ED5CFE4F208120931807CAE03AE0E3
:10107000832E912CA12CB12C4EE2C42EDD24DA94C7
:10108000DC0E2D2D30E0A901425F584F7A01A501F9
:1010900094010E94AB35605DF7016083B901CA011C
:1010A000DD20A1F0F3E0FD1588F1611571058105E2
:1010B000910599F5C250EC2FF0E0E15FF84F8EE01A
:1010C00097E020E222938E179F07E1F7D0930E0757
:1010D0008091E006882349F080E380930F0786E340
:1010E0008093100783E380931107B8018EE097E0A7
:1010F000DF91CF911F910F91FF90EF90DF90CF90F4
:10110000BF90AF909F908F900C94CA0625E0D212AA
:1011100004C0C092120724E0D22ECD2DAFCF8EBDD9
:101120000DB407FEFDCF8EB50895CF93C62F0E9454
:101130008F088C2FCF910C948F081092D3048FEFCF
:10114000809359045E9860E085E00E94950860E015
:1011500086E00E94950861E084E00E9495085E9A0E
:10116000EAE7F2E080E25E9890819EBD0DB407FE52
:10117000FDCF5E9A819394E0EA35F907A1F70E94CA
:101180005C046093E0047093E1048093E204909324
:10119000E3041092D30408952091D70630E081E053
:1011A00090E048EB5BE0B901082E02C075956795A9
:1011B0000A94E2F760FF0CC0FC01EE0FFF1FE0563F
:1011C000FA4F60817181DA01A61BB70BB183A0834E
:1011D00001968530910539F708958F929F92AF92CD
:1011E000BF92CF92DF92EF92FF92CF93DF93CEE246
:1011F000D1E0AFE0B5E020E089918E3008F08E506C
:101200004091000190E4499FA00111248770842B34
:1012100080937C0080917A00806480937A00809132
:101220007A0086FDFCCF9091780080917900892723
:1012300098278927211100C13091D406313021F43B
:1012400080916005909161054D915D91FD0132970E
:10125000BA0134E0759567953A95E1F7461B570B4F
:1012600096958795840F951F918380832F5F2530F6
:1012700019F6F090E706C0910F05D0911005809106
:10128000D406811109C16091D30670E090E080E03E
:101290000E9499374B015C01BE0190E080E00E9402
:1012A00097379B01AC01C501B4010E94BC382FE601
:1012B00032E143E05AE3F11004C023E037E24BEDA2
:1012C00058E30E94BC380E9468377093790260939B
:1012D0007802609111057091120590E080E00E9403
:1012E00097374B015C016091DB0670E090E080E095
:1012F0000E9499379B01AC01C501B4010E94BC3822
:101300002FE632E143E05AE3F11004C023E037E274
:101310004BED58E30E94BC380E946837709374020A
:10132000609373028091D606823009F027C1C09085
:101330000401D0900501F12CE12CE0919F05F0E033
:10134000EE0FFF1FE056FA4F2081318150E040E060
:101350002C193D094E095F09A4E6B0E00E94CA3588
:10136000209106013091070150E040E02C193D0921
:101370004E095F090E94AB3569017A0185E6C816FE
:10138000D104E104F1042CF024E6C22ED12CE12C8E
:10139000F12CF7FE03C0C12CD12C7601A7019601D8
:1013A000C701B6010E94A4390E9499372AE037ED9F
:1013B00043EA5CE30E94BC384B015C01C701B60103
:1013C0000E9499379B01AC01C501B4010E94073608
:1013D0006B017C01609151027091520290E080E0BB
:1013E0000E9497379B01AC01C701B6010E94BC382F
:1013F0002AE037ED43E25CE30E94BC386B017C01DC
:1014000060914F027091500290E080E00E94973707
:101410009B01AC018091F605882309F447C0C70100
:10142000B6010E9407366093F0047093F104809334
:10143000F2049093F30442C0243009F005CF3091B8
:10144000CE06333061F4E091CF06F0E0EE0FFF1FDF
:10145000E056FA4F8081918196958795F5CE32308E
:1014600029F48091C2059091C305EECE313009F088
:10147000EBCE8091CF019091D00195958795009703
:1014800009F0E2CEE091CE01F0E0EE0FFF1FE95E41
:10149000FA4F80819181D8CE43E0D595C7954A9582
:1014A000E1F7D0937902C093780213CF2093F00430
:1014B0003093F1044093F2045093F3042091170504
:1014C0003091180583E0359527958A95E1F780914D
:1014D0002C05882349F0809195068F3009F0AAC029
:1014E0003093560220935502C0905302D09054027C
:1014F0008091550290915602009709F0A5C0809105
:10150000CC019091CD018217930720F43093CD0147
:101510002093CC01F12CE12C032E000C440B550B35
:101520002C193D094E095F09A4E6B0E00E94CA35B6
:101530002091CC013091CD0150E040E02C193D09C3
:101540004E095F090E94AB352536310514F024E6BB
:1015500030E037FF02C030E020E030937202209389
:1015600071021092CE01DF91CF91FF90EF90DF904A
:10157000CF90BF90AF909F908F9008958130A1F44D
:1015800080913A0590913B0597FF0CC005976AE062
:1015900070E00E94E239072E000C880B990B0E9424
:1015A000993741CF0596F3CFC0904F02D0905002AB
:1015B000F12CE12C209113053091140593E0359521
:1015C00027959A95E1F7032E000C440B550B2C1927
:1015D0003D094E095F09A0915102B09152020E944B
:1015E000CA352FEF33E040E050E02C193D094E0999
:1015F0005F090E94AB35CA01B9010E9499376B019E
:101600007C0120E030E0A9010E94E53687FD09C099
:10161000C092F004D092F104E092F204F092F3044C
:101620004DCF1092F0041092F1041092F204109237
:10163000F30444CF813009F057CF30935402209304
:1016400053021092950650CF9093CD018093CC0118
:1016500061CF80918E068823E9F180E090E1A0E0DF
:10166000B0E08093E4049093E504A093E604B09383
:10167000E7048091A106882381F01092E40410927F
:10168000E5041092E6041092E7041092E804109228
:10169000E9041092EA041092EB048091E80490911E
:1016A000E904A091EA04B091EB044091E404509164
:1016B000E5046091E6047091E70484239523A62352
:1016C000B7238093E8049093E904A093EA04B093CD
:1016D000EB04089580912C05882329F08EED97E086
:1016E000A4E0B0E0BECF8AEB91E0A0E0B0E0809350
:1016F000E4049093E504A093E604B093E70480919A
:10170000F6058111B6CF8AEB99E0A0E0B0E0A9CF51
:1017100081E0809313018AE08093110183E080933C
:10172000120110922C05109228051092B906809192
:10173000E506882361F11092F8041092F9041092E2
:10174000FA041092FB0410926B0210926C02109239
:101750006D0210926E0210925C0210925B02109267
:101760006304109262041092700210926F02109241
:10177000D5041092D4048EEF90E090930C018093E6
:101780000B0184E690E090930A01809309010C9488
:10179000290BE3ECF7E0CF01835C97402081253AE9
:1017A00039F428E0EF3FF20709F010F43196F3CF57
:1017B00008951F93CF93DF93DC01CB01142F2223D5
:1017C00019F020930E0721E0C22FD0E0C25FD84F5E
:1017D000883E23E09207A105B1050CF450C020918A
:1017E000E206BC01CD01222309F440C0685F7E4FB0
:1017F0008F4F9F4F20E132E040E050E00E94AB3538
:10180000C9014AE0BE010E9460350E942E06282FC1
:1018100030E0F901E35FF84F9081225F384FD90142
:101820009C939EE290838F5FE82FF0E0E25FF84F99
:101830001082C6E01130B1F40E942E06E82FF0E0CD
:10184000E25FF84F2091E20630E0225B3E4FC20F8C
:10185000D32FD11D988190838F5FE82FF0E0E25F56
:10186000F84F1082DF91CF911F9108956E5C7F4FEA
:101870008F4F9F4F24E630E040E050E0BFCF4AE07A
:10188000BE010E946035C2E0D5CF4F925F926F9249
:101890007F928F929F92AF92BF92CF92DF92EF9200
:1018A0000F93CF936C012A01C22F0E941E0688233A
:1018B00009F46EC0CC2319F0C0930E07C1E08C2E42
:1018C000912CC401825F984F5C014AE0BC01C201C7
:1018D0000E946035EE2099F10E942E06482F50E0BC
:1018E00021E030E0892811F022E030E04217530770
:1018F00079F4CE5FEC2FF0E0E25FF84F1082D50173
:101900009C91DF0111979C93329790E390838F5FB6
:10191000882331F0E82FF0E0E25FF84F9081918367
:10192000EFEFE80F29F0F0E0E25FF84F908191834C
:101930008250E82FF0E0E25FF84F8EE281830023CF
:1019400069F00E942E06E82FF0E0E25FF84F008376
:101950008F5FE82FF0E0E25FF84F1082F601FF277B
:10196000EE0FFF1FEC59FB4F6081718171708EE0AB
:1019700097E0CF910F91EF90DF90CF90BF90AF9015
:101980009F908F907F906F905F904F900C94CA06BD
:10199000CF910F91EF90DF90CF90BF90AF909F903D
:1019A0008F907F906F905F904F900895EF920F937C
:1019B0001F93CF93DF93C62FD42F1091E206BC0163
:1019C000990F880B990B0E9499372CEB34E743E170
:1019D0005DE3112321F02DED3FE347EB5CE30E9433
:1019E000BC380E94683780916204909163049C0126
:1019F0002C5E3F4F2617370718F53093630420936A
:101A000062048091F306882339F08617170620F4C4
:101A10008091910681110EC0E12FF0E0E05CFE4F55
:101A2000AB0170E060E0E12C00812D2F8C2F90E065
:101A30000E94450CDF91CF911F910F91EF90089577
:101A400086179707F0F67093630460936204D9CF0A
:101A50007F928F929F92AF92BF92CF92DF92EF923E
:101A6000FF920F931F93CF93DF93962E172FD82FAC
:101A7000C92F5A01822E0091E206002371F00E94C4
:101A8000993723E43FEF44E550E40E94BC380E94BC
:101A90006137962E172FD82FC92F692D712F8D2FB3
:101AA0009C2F2AE030E040E050E00E94AB35690115
:101AB0007A018091F6058823B9F080912A059091EA
:101AC0002B05069788F080915B0290915C02092EAD
:101AD000000CAA0BBB0B8C159D05AE05BF0524F4AD
:101AE00030935C0220935B027090F2067720B9F08D
:101AF000692D712F8D2F9C2F20E137E240E050E0BF
:101B00000E94AB35872D90E0B0E0A0E028173907A0
:101B10004A075B0724F08091910681111EC08091D5
:101B2000030790E0B0E0A0E0C816D906EA06FB067D
:101B300014F58FE3881225C081E097EC892EE02F01
:101B4000F0E0E25BFE4FE82E0081282D492D512F59
:101B50006D2F7C2FC5010E94450CDF91CF911F9105
:101B60000F91FF90EF90DF90CF90BF90AF909F903C
:101B70008F907F9008959C2C1D2DDE2DCF2D80E021
:101B8000DECF81E0DCCF4F925F926F927F928F9297
:101B90009F92AF92BF92CF92DF92EF92FF920F93FC
:101BA0001F93CF93DF935B018A01E9014090C50643
:101BB0005090C6066090C7067090C806FC01608110
:101BC00071818281938164197509860997090E9440
:101BD00099376B017C01C301B2010E94993720E85B
:101BE00036E948E15BE40E94EF3625E33AEF4EE840
:101BF0005CE30E94BC380E94EA362B013C01F501EF
:101C000060817181828193818090C1069090C2062B
:101C1000A090C306B090C406681979098A099B0987
:101C20000E949937A30192010E94BC384B015C01CC
:101C3000A7019601C701B6010E94BC382B013C01E7
:101C4000A5019401C501B4010E94BC389B01AC01FF
:101C5000C301B2010E9407360E9437392CE23DE7EA
:101C60004EE85FE30E94BC380E946837F801608349
:101C7000718382839383C701B6019058A5019401B3
:101C80000E94863620EA3CE043EB55E40E94BC38D3
:101C900020E030EA4CE056E40E9407360E946137AB
:101CA00097FD15C0688379838A839B83DF91CF91E9
:101CB0001F910F91FF90EF90DF90CF90BF90AF906A
:101CC0009F908F907F906F905F904F900895605697
:101CD00073478F4F9F4FE6CFCF92DF92EF92FF92E5
:101CE0000F931F93CF93DF9309EC16E0D0E0C0E091
:101CF000CE010E949535F80181938F012196C5345C
:101D0000D105B1F78091CE06813019F43B9810923D
:101D10000107F8948091CE06813079F4E89880919B
:101D20006C0083FD0AC08091680082608093680027
:101D300080916C00886080936C0078948091E706B5
:101D4000882309F464C081E0809300010FE412E06D
:101D5000CE010E949535E82EF12CF801F182E08247
:101D6000CE0101960E94953590E0982F88278E0D20
:101D70009F1DF801819391938F012296C135D10562
:101D800039F7C0910505FEE6CF9FE00111247E01E1
:101D900081E5E80EF11C04E614E0C154DF4FC701F1
:101DA0000E949535C82ED12CF801D182C082C7017E
:101DB00001960E94953590E0982F88278C0D9D1DE7
:101DC000F801819391938F0120910B05213081F4CB
:101DD0002091E306213061F09C01317027393105F3
:101DE00038F03297213F3105A0F44E9691838083DD
:101DF000F2E0EF0EF11CCE15DF0589F6DF91CF91F1
:101E00001F910F91FF90EF90DF90CF90089583E0A6
:101E10009BCFCC96EBCFCF93DF935E9A2A9864E664
:101E200070E080E090E00E942A042A9A1CBC80E5C1
:101E30008CBD8DB581608DBD8DB58EB55E9864E627
:101E400070E080E090E00E942A0482E080930C051C
:101E500010920B0580EA0E948F088FEF0E948F0876
:101E600082FD3BC087708093D20486E891E0909316
:101E70006202809361028091D204813089F580935F
:101E80000B0580930C0580EE91E0909362028093A5
:101E90006102D0E168E480E00E94950861E070E0B2
:101EA00080E090E00E942A04C0E06091050780E194
:101EB0008C0F0E949508CF5FDC13F7CF5E9A9FB717
:101EC000F894809169008C7F826080936900E89A21
:101ED0009FBFDF91CF910C946C0E1092D204C5CFAE
:101EE000823011F410920C05DDE068E0D4CF1F932E
:101EF000CF93DF9385ED8093BC008091D8019091C2
:101F0000D901A091DA01B091DB010796A11DB11DA5
:101F100023E0B695A795979587952A95D1F72091B7
:101F2000BC0024FD03C01092200252C04091D80191
:101F30005091D9016091DA017091DB01452B462B5C
:101F4000472B69F30097A105B10541F025E32A95D8
:101F5000F1F700000197A109B109E1CF8091D70104
:101F6000C1E0C093D601882399F1D091B8001091B7
:101F7000BA008091BC008A7B8093BC0060E082E163
:101F80000E94B90360E083E10E94B903109220022D
:101F9000C09322021092210261E082E10E94B90303
:101FA00061E083E10E94B9038091B9008E7F809344
:101FB000B9008091B9008D7F8093B90088E4809347
:101FC000B80085E48093BC001093BA00D093B800A9
:101FD000DF91CF911F9108950C949D351F93CF935E
:101FE000DF93EC01172F0E94EC0F612FCE010196B9
:101FF000DF91CF911F910C94EC0F0F931F93CF9310
:10200000DF93C0911101CA30C9F48091120183306D
:10201000A9F48091290582301CF081E08093290584
:10202000809129058F3F1CF48FEF809329058091C3
:10203000130190912905890F809313018091130159
:1020400087FF03C084E080931301809113018530E2
:1020500014F01092130180911301813009F09AC09D
:1020600090911201933041F4C23009F483C008F01A
:1020700068C0C13009F472C0CA3009F076C08093DC
:10208000140180911201813009F455C0823009F0A9
:102090006CC06EE18AEC0E94AE0580E00E9498055B
:1020A00080E00E94980580E00E949805C150A9F741
:1020B0000E94920567E08CEC0E94AE0580E00E94D1
:1020C000980580E00E94980580E00E94980580E0D5
:1020D0000E94980580E00E94980580E00E94980583
:1020E00080E00E9498050E94920509EC16E0D0E07D
:1020F000C0E0F80161918F01CE010E94EC0F2196A2
:10210000C534D105B1F70FE412E0C5E4D0E0F80121
:10211000619171918F01CE010E94EE0F2296C1351F
:10212000D105A9F762E190E080E00E94EC0F60E049
:102130008AEF0E94AE05DF91CF911F910F910C9411
:10214000880BC330F9F0C43009F096CF8091D206E5
:1021500090912905890F8093D20607C08091D106FE
:1021600090912905890F8093D106DF91CF911F911E
:102170000F9108958091D30690912905890F80933E
:10218000D306F3CF8091DB0690912905890F8093C8
:10219000DB06EBCF823071F590911201933009F09C
:1021A0006BCFC23049F0C330B1F0C13009F064CF19
:1021B0008FE080939506D9CF209129058091550213
:1021C00090915602820F911D27FD9A959093560289
:1021D00080935502CACF2091290580915302909196
:1021E0005402820F911D27FD9A959093540280937B
:1021F0005302BBCF833041F590911201933009F027
:102200003BCFC13091F0C23009F036CF2091290583
:1022100080914F0290915002820F911D27FD9A9557
:102220009093500280934F02A0CF20912905809176
:10223000510290915202820F911D27FD9A95909321
:1022400052028093510291CF843009F015CF9091C2
:102250001201933009F010CFEFEFEC0FE73008F0E8
:102260000BCFF0E0EA5CFE4E0C94F6393D114511BF
:102270004D1155115D1165116D118091F10690910F
:102280002905890F8093F10670CF8091F206909115
:102290002905890F8093F20668CF8091F30690910B
:1022A0002905890F8093F30660CF8091F406909101
:1022B0002905890F8093F40658CF8091DD0690910F
:1022C0002905890F8093DD0650CF8091DE0690911D
:1022D0002905890F8093DE0648CF81E09091D906C9
:1022E000911180E08093D90640CFCF92DF92EF9298
:1022F000FF920F931F93CF93DF9390E080E00E94B3
:102300009535823109F438C0D0E0C0E0FE01EC5AC6
:10231000FC4F6491CE010E94EC0F2196C534D1058B
:10232000A9F7C5E4D0E0FE01ED5FFC4F6591749123
:10233000CE010E94EE0F2296C135D105A1F786EBA2
:10234000E82E83E0F82E0AED12E0CE018A5D92407D
:102350006C01F80165917491C601800F911F0E9474
:10236000EE0F0E5F1F4FE016F10699F7C259DF4FCF
:10237000CB3991E0D90739F7DF91CF911F910F91B8
:10238000FF90EF90DF90CF9008952F923F924F9261
:102390005F926F927F928F929F92AF92BF92CF92F5
:1023A000DF92EF92FF920F931F93CF93DF93CDB7FE
:1023B000DEB7A6970FB6F894DEBF0FBECDBF82E2A0
:1023C00097E00E940503892B09F450C022242A9427
:1023D000322C82E297E00E94E3024C0189A38091B3
:1023E000A7069091A80601969093A8068093A70649
:1023F00080918E0681111DC0009142061091430606
:102400000115110511F40C944C1C0730110509F449
:1024100014C1882D0E94F6040130110509F043C053
:102420008092390629A12134D0F1109243061092EE
:10243000420680918C0690918D06009711F00C94C5
:10244000741A81E090E0A9A1A43211F090E080E03C
:1024500090938D0680938C0681E080938B0682E2B8
:1024600097E00E940503892B09F0B3CFA6960FB61B
:10247000F894DEBF0FBECDBFDF91CF911F910F91BA
:10248000FF90EF90DF90CF90BF90AF909F908F9094
:102490007F906F905F904F903F902F90089582E0D3
:1024A00090E00C94591C0230110521F483E090E077
:1024B0000C94591C0330110549F48091D80639A1B8
:1024C0003813B3CF84E090E00C94591C043011050C
:1024D00041F489A1813009F0A8CF85E090E00C9407
:1024E000591C0530110509F092C08092380699A157
:1024F0009A3209F478C010F5983109F457C088F47D
:10250000913009F464C008F43FC0923009F47AC0F5
:1025100080913906EAA08E1188CF86E090E00C9475
:10252000591CA9A1AE31E1F1A33209F444C0AD3187
:1025300079F783E7809336068EE036C0B9A1B938C3
:1025400009F456C058F4B134E1F1BA3419F1BE338C
:10255000F9F687EB809336062AE11AC0E9A1E83A3A
:10256000E1F138F4E339A1F68AE980933606F4E222
:1025700038C0F9A1F63F09F440C0FD3F49F683E5B4
:1025800080933606A3E31BC082E38093360629E0DE
:102590002AA3BECF84E18093360634E13AA3B8CFB4
:1025A00087E2809336068CE18AA3B2CF809236060A
:1025B0009EE19AA3ADCF84EF80933606A6E1AAA34D
:1025C000A7CF86E780933606BAE2BAA3A1CF8CE7FD
:1025D00080933606EFE1EAA39BCF81E08093360635
:1025E000FCE0FAA395CF8CE18093360632E0D6CF9B
:1025F0008EE0809336069EE0DCCF88EB8093360633
:10260000B6E2E3CF89E880933606ECE0E4CF06300B
:10261000110509F00ECF80913706E82FF0E0EC5B52
:10262000F94F80828F5F8093370690913906891326
:1026300000CF87E090E00C94591C8091390690916E
:10264000370689130AC09401332730933506209347
:1026500034068F5F80933706ECCE182D00278091CB
:10266000340690913506080F191F10933506009314
:102670003406809136060E94F60480913C069091C3
:102680003D060817190709F0D0CE20913206309187
:10269000330690E080E0F0E0E0E001E010E0BC0113
:1026A000A801082E02C0440F551F0A94E2F74223E6
:1026B0005323452BE9F0A1E0B0E04AE050E060FF91
:1026C00008C07D01E49ED001E59EB00DF49EB00DE2
:1026D0001124759567956115710541F07A01EE9C9D
:1026E000A001EF9C500D500D1124E9CFEA0FFB1F04
:1026F00001968530910599F6F0935905E0935805B8
:102700008091A5069091A60601969093A6068093C7
:10271000A50685E080939F06809138068A3209F4E9
:1027200047C6B0F5883109F475C2E8F4813009F480
:1027300044C608F490C0E4E4F6E0DE01119682306D
:1027400009F419C38091F60581116FCE1092CA0564
:102750001092CB051092CC051092CD051092C905B0
:102760001092C80562CE8E3109F429C2833209F471
:1027700040C38D3139F78CE00E94BC04CB0164E684
:1027800070E00E94E2397093630560936205DACFCE
:10279000893889F388F4813409F46DC38A3409F4E3
:1027A0008DC18E3379F680915C0690915D06909391
:1027B0003E0580933D05C6CF883A09F40FC508F55C
:1027C000833909F0BFCF206130933306209332065E
:1027D0008AE00E94BC0404E610E0CB01B8010E942C
:1027E000E23970936105609360058AE00E94BC0441
:1027F000CB01B8010E94E23970935F0560935E05DA
:10280000A1CF863F09F429C58D3F09F09BCF909158
:10281000440680910607891708F494CFA4E4B6E033
:10282000E4E6F5E092E322E330E2D2968C91D2978F
:1028300082AB4FE9480F4A3108F000C5805282ABA5
:102840009150119731979111F0CF20939A0584E020
:102850008093BA0677CF21603093330620933206F7
:1028600011E01093FB0580E190E0A0E0B0E08093E0
:102870000A0690930B06A0930C06B0930D0680E217
:1028800090E0A0E0B0E080930E0690930F06A09336
:102890001006B093110680E490E0A0E0B0E08093D1
:1028A0002A0690932B06A0932C06B0932D06C09079
:1028B000F705D090F805E090F905F090FA05E89456
:1028C000C0F8C092F705D092F805E092F905F092B1
:1028D000FA0580E00E94BC0460933A0680E00E9402
:1028E000BC04382F813009F0B5C010923A068091AF
:1028F0003A068C3018F08BE080933A0680914A06B5
:1029000087FFD1C06894C0F8C092F705D092F8054F
:10291000E092F905F092FA0581E08093F60582E0F5
:102920008093F50580910907882309F40BCF609007
:102930001501662009F406CF8CE0E6E1F1E0DE0146
:102940001D9601900D928A95E1F78CE0E2E2F1E0AC
:10295000DE01119601900D928A95E1F78E010F5FCD
:102960001F4F7E019DE0E90EF11C6701D8014D90DB
:102970008D01F70151907F0170901C057394709246
:102980001C0530923F0620923E068EEF90E00E949A
:10299000940381E20E946005872D0E94600583E612
:1029A0000E94600583E60E9460058CE40E94600539
:1029B000652D70E090E080E00E946B05A42DB0E0F2
:1029C00020E432E44FE050E00E94CA350E946B05DB
:1029D00060E070E0CB010E946B0560E070E0CB012D
:1029E0000E946B0560E070E0CB010E946B0560E027
:1029F00070E0CB010E946B0560E070E0CB010E94AB
:102A00006B058FEF0E94600581E00E946005809158
:102A1000D8060E94600581E00E946005872D0E9413
:102A2000600588E990E00E941F0560913E06709065
:102A30003F0682E297E00E944703672D82E297E01B
:102A40000E9447030C151D0509F090CF6A9460920F
:102A5000150178CE823019F410933A0648CF8330AE
:102A600021F482E080933A0642CF843089F4923098
:102A700011F483E0F7CF9330A9F385E0943091F31C
:102A800086E0953079F387E0963009F030CFEACFD1
:102A900088E0353039F389E0363021F38AE0373089
:102AA00009F38BE0DFCF8091F505882311F0815089
:102AB00037CF1092F6051092F40534CF2260309390
:102AC00033062093320680E00E94D9040E946137C9
:102AD00014E6169F9001179F300D11243093F305D3
:102AE0002093F20584E00E94D9040E946137169F6A
:102AF0009001179F300D11243093F1052093F005BC
:102B00008091540690915506853B910514F08856A6
:102B100091409093EF058093EE058CE00E94D904DC
:102B200020E030E048EC52E40E94BC380E9461375B
:102B30007093ED056093EC0588E00E94D90420E0D5
:102B400030E048EC52E40E94BC380E94613720918A
:102B5000F4053091F60522FD0DC06093E4057093F5
:102B6000E5058093E6059093E705332319F024608B
:102B70002093F4050091E4051091E5052091E60508
:102B80003091E705601B710B820B930B6093E80596
:102B90007093E9058093EA059093EB052091560622
:102BA000309157064AE0429FC001439F900D112487
:102BB00088519C4F9093410680934006C3CD84E09A
:102BC0000E94D90426EE3EE245E652E40E94BC385B
:102BD00020E030E040E251E40E94BC380E946137BE
:102BE0007093E1056093E00588E00E94D90426EE29
:102BF0003EE245E652E40E94BC3820E030E040E28C
:102C000051EC0E94BC380E9461377093E3056093D9
:102C1000E20598CD2460309333062093320610915C
:102C200061061093DF05809160068093DE0588E0E1
:102C30000E94BC042B013C014092C5065092C6067E
:102C40006092C7067092C8068CE00E94BC046B01BB
:102C50007C01C092C106D092C206E092C306F092F7
:102C6000C40680915806909159069093DD05809393
:102C7000DC0560915406709155068091560690913E
:102C8000570628EE33E040E050E00E94AB358091DB
:102C9000F4056091F60581FD09C03093D7052093B6
:102CA000D605662319F082608093F4058091D605DD
:102CB0009091D705092E000CAA0BBB0B281B390BD2
:102CC0004A0B5B0B2093D8053093D9054093DA0566
:102CD0005093DB058091F40580FD49C0153008F460
:102CE00031CD662399F081608093F4054092CE0542
:102CF0005092CF056092D0057092D105C092D20556
:102D0000D092D305E092D405F092D5058091F405D8
:102D100080FF18CD9E012F5F3F4FAE01435F5F4F95
:102D200062ED75E08EEC95E00E94C30D6D857E85A9
:102D30008F85988924E630E040E050E00E94D53548
:102D40002093CA053093CB054093CC055093CD0515
:102D500069817A818B819C8124E630E040E050E0FB
:102D60000E94AB353093C9052093C805EBCC1530D4
:102D700008F4E8CCCBCF81918D9326E0EC34F207B8
:102D8000D1F729813A814B815C816D817E81E0E4BC
:102D9000AE2EF2E4BF2EAFE0CA2ED12CE12CF12CE6
:102DA00000E010E08F8198850E94FE3929833A83E4
:102DB0004B835C836D837E838F839887722F2093F0
:102DC000C4053093C5054093C6055093C7052091AF
:102DD000F6052111B7CC2091DF05253008F4B2CCDF
:102DE00070931D0530931E0540931F0550932005D9
:102DF000A9CC28603093330620933206809159067F
:102E000036E6839FC00111246AE070E00E94E23937
:102E10007093C3056093C20580915806811192CCCE
:102E2000E4E4F6E081E090E0258134812327322735
:102E30002327DC01AA0FBB1FA056BA4F11963C9363
:102E40002E93019632968930910571F70E94CC0835
:102E50008091F605882309F475CCE0919F05F0E098
:102E60008091400690914106EE0FFF1FE056FA4F09
:102E70009183808367CC80916D06A6E68A9FC0010E
:102E800011246AE070E00E94E2397093C3056093F8
:102E9000C205E4E4F6E081E090E025813481232757
:102EA00032272327DC01AA0FBB1FA056BA4F119669
:102EB0003C932E93019632968131910571F70E94D1
:102EC000CC081091F605112369F0E0919F05F0E020
:102ED0008091400690914106EE0FFF1FE056FA4F99
:102EE00091838083E0903805F12CEE0CFF1CF701F4
:102EF000E056FA4F808191818531954008F4A6C053
:102F000080819181843A964008F0A0C0E091370515
:102F1000F0E0EE0FFF1FE056FA4F8081918185317E
:102F2000954008F493C080819181843A964008F0DE
:102F30008DC0E0913605F0E0EE0FFF1FE056FA4F2E
:102F4000808191818531954008F480C08081918194
:102F5000843A964008F07AC01092350588EE93E0E6
:102F6000A0E0B0E08093310590933205A093330543
:102F7000B0933405809135058111E4CBF701E0561B
:102F8000FA4F2081318180912C052B333740C8F0D6
:102F9000E0913605F0E0EE0FFF1FE056FA4F20817A
:102FA00031812B33374068F0E0919F05F0E0EE0F60
:102FB000FF1FE056FA4F208131812F37344008F04F
:102FC0006CC0882309F4BECB1091290516300CF48F
:102FD00081C015E010922905809128058823A9F069
:102FE000E0919F05F0E0EE0FFF1FE056FA4F808161
:102FF00091818134964020F48091B906811105C0F9
:1030000082E0809335050E94880B80912C058823EF
:1030100009F498C0E0913705F0E0EE0FFF1FE0568D
:10302000FA4F208131812B33374008F458C081E0BA
:1030300080933505809112018F5F80931201843057
:1030400008F4A6C083E0809312013EC0809135054C
:10305000813009F08FCF0E945C0440902D05509084
:103060002E0560902F05709030056419750986094A
:10307000970940903105509032056090330570906B
:103080003405461657066806790610F41092350581
:103090008CE291E0A0E0B0E065CF811153CB80914C
:1030A0002A0590912B05069708F44CCB11114ACBB9
:1030B00082E08093350581E080932C058091140196
:1030C000809313010E94290B80913505813009F00E
:1030D00039CB5EC01B3F0CF07DCF1BEF7BCF208137
:1030E00031812E37344068F491E09093350580911A
:1030F000120181508093120181114AC090931201F4
:10310000E3CFF701E056FA4F208131812B3337406E
:10311000A0F091E09093350580911101815080934A
:103120001101811102C0909311018091130181114D
:103130002FC08AE080931101C7CF208131812E37C3
:103140003440E0F0909128059111BECF882309F416
:10315000BBCFE0913605F0E0EE0FFF1FE056FA4FCF
:10316000808191818E379440F0F481E08093350521
:103170001150109329050E94FD0FA6CF81E0809386
:103180003505809111018F5F809311018B3088F696
:103190000E945C0460932D0570932E0580932F058B
:1031A00090933005CFCA808191818B33974008F48A
:1031B0008BCF81E0809335051F5F109329058091A7
:1031C00013018430C1F6809112018330A1F6809101
:1031D0001101853081F610929606CDCF80E00E94D5
:1031E000D9046B017C016091EE057091EF0568597F
:1031F0007E4F072E000C880B990B0E949937A70170
:1032000096010E9406360E946137CB0168E671E0A4
:103210000E94E23990939E0580939D0584E00E9470
:10322000D90426E636E646E650E40E94BC380E9401
:10323000683770939C0560939B0584CA4FEB480FD9
:103240004A3108F4FDCA44ED480F4E3008F032AB65
:103250008111F6CA12AA292FF3CA8091DF058530A1
:1032600008F470CA109257050E94E8056B017C01B2
:103270000E94E8056D8F7E8F8F8F98A30E94E805CE
:10328000698F7A8F8B8F9C8F0E94E80528EE33E040
:1032900040E050E00E94D5352BA33CA34DA35EA394
:1032A0000E94DA0564E670E00E94CE398B019E012F
:1032B0002F5F3F4FAE01435F5F4FBE01675E7F4FA1
:1032C000CE014D960E94C30D6D857E858F859889B0
:1032D00024E630E040E050E00E94D53529013A0173
:1032E0004D865E866F86788A69817A818B819C8122
:1032F00024E630E040E050E00E94AB3529833A8379
:103300004B835C8361E08091530590915405A091BB
:103310005505B091560584159505A605B70508F421
:1033200060E09091BC06923008F461E080913F0526
:1033300090914005A0914105B0914205C816D9066B
:10334000EA06FB0609F4BBC281E2481681EA580688
:1033500087E06806710408F0F5C9613009F0F2C928
:10336000C0923F05D0924005E0924105F09242059F
:10337000409253055092540560925505709256053F
:103380008BA19CA1ADA1BEA180934B0590934C0550
:10339000A0934D05B0934E053093520520935105EF
:1033A0001093500500934F058AE08093BC06CAC96C
:1033B0008091440680933C05C5C982E08093FC055A
:1033C00084E090E0A0E0B0E08093FE059093FF05DC
:1033D000A0930006B093010688E090E0A0E0B0E082
:1033E0008093020690930306A0930406B09305060B
:1033F000C090F705D090F805E090F905F090FA0537
:1034000091EFC922C092F705D092F805E092F90534
:10341000F092FA0584E00E94BC0461FF0AC068943F
:10342000C1F8C092F705D092F805E092F905F09244
:10343000FA0584E00E94BC0463FF11C08091F70587
:103440009091F805A091F905B091FA0584608093F8
:10345000F7059093F805A093F905B093FA0584E079
:103460000E94BC0464FF11C08091F7059091F8059B
:10347000A091F905B091FA0584608093F7059093C7
:10348000F805A093F905B093FA0584E00E94BC0406
:1034900062FF11C08091F7059091F805A091F905A0
:1034A000B091FA0588608093F7059093F805A09392
:1034B000F905B093FA05809152069091530664E69F
:1034C00070E00E94CE3970935D0560935C05809139
:1034D00054069091550690933B0580933A05809150
:1034E0006206809339052EC98130910589F4B9A10E
:1034F000BD3431F010928D0610928C060C942F1270
:1035000082E090E090938D0680938C060C942F12AD
:103510008230910541F4E9A183E090E0EE3391F32C
:1035200090E080E0EFCF83309105E9F484E090E013
:1035300090938D0680938C06C401992790938A06F8
:1035400080938906F9A1F23420F010928D06109232
:103550008C061092880640918B06682D80E00E94B0
:1035600080050C942F1284309105B9F4C401992779
:10357000909387068093860685E090E090938D0671
:1035800080938C0640918B06682D809188060E945E
:103590008005109285060C942F12059711F00C945B
:1035A0002F12F0908506809188060F2D10E0209153
:1035B000890630918A060217130709F05FC1E9A056
:1035C000E81298CF8091A5069091A6060196909357
:1035D000A6068093A5061092570585E080939F0666
:1035E00080918606909187068C3D910509F082CFE7
:1035F000E8980E94CF05182F8EEF8093A10619300E
:10360000B1F50E94CF05182F0E94CF05212F280F5A
:103610003327331F30931B0520931A050E94CF05D3
:10362000809319056FE18CED0E94AE0589E00E9440
:1036300098054AE0F42E00911A0510911B05C80167
:103640000E949535E82E80931905C8010E94A605B1
:103650008E2D0E9498050F5F1F4F10931B0500933E
:103660001A05FA94F110E7CF0E94920543CF183063
:1036700009F03FC03AE0F32E0E94CF05082F0E94C8
:10368000CF0590E0982F8827080F192F111D109350
:103690001B0500931A050E94CF0580931905682F1A
:1036A000C8010E94EC0F00911A0510911B050A3900
:1036B00031E0130711F40E946C0EFA94F110DCCF84
:1036C0000F5F1F4F10931B0500931A0562E190E0F6
:1036D00080E00E94EC0F63E08CED0E94AE0589E073
:1036E0000E94980580911A0590911B050E94A605DD
:1036F000BBCF1B30E9F58FEF8093A2066BE08CED1A
:103700000E94AE0587E00E9498059FE0E92E95E0B3
:10371000F92ED7018D919D917D010E94A605B9E1F9
:10372000EB16B5E0FB06A9F70E9492056DE08CED63
:103730000E94AE058AE00E9498058FE090E00E940A
:10374000A60590E080E00E94A60580ED97E00E942B
:10375000A60581E090E00E94A60581E290E00E942B
:10376000A60581E090E00E94A6050E94920502C095
:10377000173009F2133009F071C08091F6058111FC
:103780000BC080912C05811107C080918E0681119C
:1037900003C081E080938E068091890690918A060D
:1037A0008530910569F40E94DA0580329D4109F067
:1037B000A1CE0E94CF0580930E050E94CF059ACE20
:1037C000C89709F097CE00917B065E98D0900B05C4
:1037D00060E4D11001C060E080E00E949508602F95
:1037E00089E00E94950885E4E82E86E0F82E10E036
:1037F000612F8AE00E949508D7016D917D018BE0D1
:103800000E9495081F5F163399F760EA88E00E94CE
:10381000950880EA0E948F0885FDFBCF6CE4D110EB
:1038200001C06CE080E00E9495085E9A64E170E05F
:1038300080E090E00E942A040F3F29F40E940B0FC1
:1038400010928E0657CE63E08CED0E94AE0583E0A9
:103850000E94980580910E0590E048CF163059F4EB
:1038600060E090E080E00E94EC0F0E94751181E022
:1038700080930A053FCE1530D1F33CCE40918B06A4
:10388000682D0E948005F394F0928506F801EC5BA8
:10389000F94F80820C942F12B9A1BE3F11F00C9405
:1038A000191230923D0620923C061092370681E0B4
:1038B00090E090934306809342060C941912E1E243
:1038C0004E16E1EA5E06E7E06E06710410F00C9415
:1038D000A21346CD1F920F920FB60F9211242F9371
:1038E0003F934F935F936F937F938F939F93AF9388
:1038F000BF93EF93FF9382E297E00E942503FF912D
:10390000EF91BF91AF919F918F917F916F915F9157
:103910004F913F912F910F900FBE0F901F901895D0
:103920001F920F920FB60F9211242F938F939F9394
:10393000EF93FF93E0913207F09133078081E0919C
:103940003807F091390782FD1BC0908180913B07B9
:103950008F5F8F7320913C07821741F0E0913B0706
:10396000F0E0EE5DF84F958F80933B07FF91EF916C
:103970009F918F912F910F900FBE0F901F901895D0
:103980008081F4CF1F920F920FB60F9211242F93C4
:103990003F938F939F93AF93BF93809147029091F2
:1039A0004802A0914902B0914A023091460223E0B8
:1039B000230F2D3758F50196A11DB11D2093460206
:1039C0008093470290934802A0934902B0934A0221
:1039D00080914B0290914C02A0914D02B0914E0209
:1039E0000196A11DB11D80934B0290934C02A093B0
:1039F0004D02B0934E02BF91AF919F918F913F9135
:103A00002F910F900FBE0F901F90189526E8230F4F
:103A10000296A11DB11DD2CF1F920F920FB60F9229
:103A200011242F933F934F935F936F937F938F93C3
:103A30009F93AF93BF93EF93FF938091B900887FDB
:103A4000803609F44AC0F0F5883209F4A5C018F5AB
:103A5000803109F499C0B8F4882309F4F5C088309E
:103A600009F492C0FF91EF91BF91AF919F918F9117
:103A70007F916F915F914F913F912F910F900FBE6A
:103A80000F901F901895883109F486C0803251F745
:103A900080931F0214C0803409F49BC040F480332B
:103AA000B9F38833F9F680931F0285ECAEC08035F8
:103AB00009F483C0883509F494C0883499F60E94CB
:103AC000770FD0CF883909F48AC038F5883729F0C4
:103AD00050F4883611F0803729F683E08093200275
:103AE00010921E0255C0883809F479C0803919F047
:103AF000803809F0B7CF80911E02803208F06FC085
:103B0000E0911E0281E08E0F80931E028091BB0027
:103B1000F0E0E250FE4F80833BC0803B39F0D0F4B0
:103B2000803A09F477C0883A09F09CCF84E080930A
:103B300020021092FD011092FC01F0E0E0E00995F6
:103B40008091FC0181110FC081E08093FC011092F3
:103B5000DC0109C0803C09F4A8CF883C09F4A5CF5A
:103B6000883B09F07FCFE091FD0181E08E0F8093CB
:103B7000FD01F0E0E452FE4F80818093BB00909104
:103B8000FD018091FC0129C0809145028093BB001A
:103B900085EC8093BC0066CF9091440280914302F3
:103BA000981758F5E091440281E08E0F809344020B
:103BB000F0E0ED5DFD4F8081E9CFE091440281E0CE
:103BC0008E0F809344028091BB00F0E0ED5DFD4FCD
:103BD000808390914402809143029817C8F285E84F
:103BE000D8CFE091440281E08E0F8093440280910F
:103BF000BB00F0E0ED5DFD4F8083809122028111DA
:103C00005ECF81E08093210284EA8093BC00109211
:103C1000200228CF85EC8093BC0010922002809176
:103C20001E02803230F4E0911E02F0E0E250FE4FBE
:103C3000108260911E0270E08EEF91E0F0E0E0E013
:103C4000099510921E020ECF10921F0238CF1F92BC
:103C50000F920FB60F9211242F933F934F935F93C0
:103C60006F937F938F939F93AF93BF93EF93FF9344
:103C70008091D3018F5F8093D3018091D3018430F1
:103C800038F01092D3018091D30481110E949D08D5
:103C9000FF91EF91BF91AF919F918F917F916F9124
:103CA0005F914F913F912F910F900FBE0F901F90FA
:103CB00018951F920F920FB60F9211242F933F93D6
:103CC0004F935F936F937F938F939F93AF93BF9324
:103CD000CF93EF93FF930E94050426B1789440910F
:103CE000D1015091D201FB01E41BF50BAF0123FF81
:103CF00039C07093D2016093D101493BFBE05F076B
:103D0000A8F081E080930101FF91EF91CF91BF91E5
:103D1000AF919F918F917F916F915F914F913F9163
:103D20002F910F900FBE0F901F90189520910107B3
:103D3000222351F3C0910101C13180F4EC2FF0E056
:103D4000EE0FFF1FE056FA4F51834083C43031F429
:103D50005093600240935F020E94CC08CF5FC093F3
:103D60000101D2CF209101072111CECF9F0125580B
:103D700033402534354040F6F0936002E0935F0213
:103D8000F093D001E093CF01BFCFE2E2F7E01382DE
:103D9000128288EE93E0A0E0B0E084839583A6834E
:103DA000B7838CE591E09183808385EC90E09587E3
:103DB000848784EC90E09787868780EC90E0918BF5
:103DC000808B81EC90E0938B828B82EC90E0958BE2
:103DD000848B86EC90E0978B868B118E128E138EDF
:103DE000148E0895CF93DF93CDB7DEB7EF970FB65C
:103DF000F894DEBF0FBECDBF789484B5826084BDD9
:103E000084B5816084BD85B5826085BD85B58160DE
:103E100085BD80916E00816080936E00109281005C
:103E20008091810082608093810080918100816017
:103E300080938100809180008160809380008091D8
:103E4000B10084608093B1008091B0008160809364
:103E5000B00080917A00846080937A0080917A002B
:103E6000826080937A0080917A00816080937A00EA
:103E700080917A00806880937A001092C100E0916E
:103E8000BF07F091C007309711F4E3ECF7E085EA43
:103E900028E0EF3FF20709F010F48193F9CF84B7DF
:103EA00014BE809160008861809360001092600071
:103EB000E0913207F091330782E08083E09132078E
:103EC000F09133071082E0912E07F0912F071082B6
:103ED000E0913007F091310780E1808310923A073A
:103EE000E0913607F091370716E01083E091340730
:103EF000F0913507808180618083E0913407F091F3
:103F00003507808188608083E0913407F091350720
:103F1000808180688083E0913407F091350780814B
:103F20008F7D808384B18C6284B92498569A52988C
:103F300081E10E947F0285E00E947F02579A0E94E1
:103F400075110E946C0E68EE73E080E090E00E94B4
:103F50002A041093A1060E940B0F80915A0490919D
:103F60005B048F6090935B0480935A040E94290B3A
:103F700081E893E4ADE6B8E38093C4059093C5056A
:103F8000A093C605B093C70580931D0590931E05A9
:103F9000A0931F05B093200582E297E00E94990349
:103FA00090E080E028EE33E0FC01EE0FFF1FE056CA
:103FB000FA4F31832083019681319105A9F70E9440
:103FC000C51180918E068111FACF8091D006813083
:103FD00069F08230A1F181E08093370582E080931F
:103FE000380583E08093360584E009C08093370567
:103FF00082E08093380584E08093360583E08093E7
:104000009F0510920705109206058091A3069091D6
:10401000A40601969093A4068093A30630910A0506
:104020003EAF3323B1F084B7877F84BF80916000B7
:1040300088658093600081E480936000FFCF809367
:10404000370583E08093380584E08093360581E06E
:10405000D6CFE091F006109205058091EF068130F1
:1040600009F00DC2F0E0EE0FFF1FE056FA4F80811D
:1040700091818134964008F4FAC182E0809305056D
:10408000109105058091040518130E946C0E109381
:10409000040580919106882309F40AC25F9A0E9460
:1040A0005C046B017C018091000590910105A09159
:1040B0000205B0910305B701A601481B590B6A0B15
:1040C0007B0B443651056105710508F47BC08C59A2
:1040D0009F4FAF4FBF4F8093000590930105A09372
:1040E0000205B093030580918F068F5F80938F0642
:1040F000809190068F5F8093900681E09091920668
:10410000911180E0809392068091DE05882309F466
:104110003FC08091F6058823D9F16091F005709138
:10412000F105072E000C880B990B0E94993780909F
:10413000FC049090FD04A090FE04B090FF04209138
:10414000E206222309F4B6C121EB32E047E55BE346
:104150000E94BC38A50194010E9407366093FC04BC
:104160007093FD048093FE049093FF046091FC041F
:104170007091FD048091FE049091FF040E946837C5
:104180006093F8047093F9048093FA049093FB040D
:104190002091F0043091F1044091F2045091F30425
:1041A0006091F4047091F5048091F6049091F70405
:1041B0000E9407366093F4047093F5048093F6042C
:1041C0009093F7048091EC049091ED04A091EE049B
:1041D000B091EF04C81AD90AEA0AFB0A6EE1C616C2
:1041E000D104E104F10408F499C04E96A11DB11D5B
:1041F0008093EC049093ED04A093EE04B093EF044D
:104200008091E8049091E904A091EA04B091EB0454
:10421000892B8A2B8B2B81F48091E4049091E50407
:10422000A091E604B091E7048093E8049093E90438
:10423000A093EA04B093EB044091E8045091E904A0
:104240006091EA047091EB04DB01CA010197A109B6
:10425000B10984239523A623B7238093E804909380
:10426000E904A093EA04B093EB040E945C04AB0160
:10427000BC018091E0049091E104A091E204B0912E
:10428000E304805B9F4FAF4FBF4F84179507A6078E
:10429000B70728F48091D30481110E949D080E94E1
:1042A000ED0880912A0590912B05069708F007C12B
:1042B0008091D304811129C023EBE22E23E0F22E5A
:1042C00000E410E0F70185919491B8010E94BF06C7
:1042D00072E0E70EF11C025E1F4F0E3481E01807FA
:1042E00089F788EF90E00E94F407E0910C05F0E078
:1042F000EE0FFF1FE355FC4F8591949166E171E04D
:104300000E94BF0681E08093D3048091DE049091E7
:10431000DF04CC9790939406809393068091900647
:10432000853048F01092900681E0909191069111AD
:1043300080E0809391060E945C0480909B069090A0
:104340009C06A0909D06B0909E06F8EE8F0EF3E0BE
:104350009F1EA11CB11C86169706A806B90610F070
:104360000C94FC34C0901D05D0901E05E0901F05F4
:10437000F0902005D701C6010196A11DB11D8093C3
:104380001D0590931E05A0931F05B09320052FE7F0
:10439000C21A23E4D20A2DE6E20A28E3F20A809147
:1043A000EB0620E830E0281B310940E15EE0249F65
:1043B000C001259F900D349F900D1124092E000CF3
:1043C000AA0BBB0BC81AD90AEA0AFB0A8CE3482ECF
:1043D000512C612C712CC701B601A30192010E94DE
:1043E000D53560932705CA01B901A30192010E9446
:1043F000D53560932605C701B60120E13EE040E0D7
:1044000050E00E94D535CA01B90128E130E040E012
:1044100050E00E94D53560932505C701B60120E81C
:1044200031E541E050E00E94D53560E0C12CD12C4F
:104430007601762F73708EE691E0A0E0B0E021F077
:104440008DE691E0A0E0B0E08C0D9D1DAE1DBF1D7E
:104450002C013D01662477242415350546055705B2
:1044600010F40C9436346F5F6C017D01E2CF8081D3
:1044700091818937954008F403CE81E0FFCD80918A
:10448000220690912306A0912406B0912506409122
:10449000F7055091F8056091F9057091FA058423AC
:1044A0009523A623B723892B8A2B8B2B31F7E8CDB5
:1044B0005F98F5CD2FE632E143E85AE349CE00910B
:1044C000F605002369F081E0809328058EE1809352
:1044D000B90680912C0511E08130A1F40E94880B6F
:1044E00010912805112371F001110CC010921301D5
:1044F0008AE08093110181E08093120180932C0562
:104500000E94290B90912C059DAF992309F4F0C2CC
:104510000E94290B8091D304811100CF00911301D7
:10452000E02FEE0FFF0BEF5EFB4F8591949163E25E
:1045300070E00E94BF066BE671E08CE094E00E94A0
:10454000BF0611110CC061E771E082E094E00E94A7
:10455000BF066BE771E08BEF93E00E94BF0601118D
:10456000B8C083E10E941E06811104C010920A01A6
:104570001092090181E090E0A0E0B0E089839A8385
:10458000AB83BC838091F8049091F904A091FA0464
:10459000B091FB048D839E83AF83B88780916B02BB
:1045A00090916C02A0916D02B0916E0289879A87FA
:1045B000AB87BC8780915B0290915C02092E000C56
:1045C000AA0BBB0B8D879E87AF87B88B8091620447
:1045D00090916304B0E0A0E0898B9A8BAB8BBC8B8D
:1045E00020E030E044EB53E46091F4047091F50472
:1045F0008091F6049091F7040E94EF360E9468378C
:104600006D8B7E8B8F8B988F80916F029091700253
:10461000B0E0A0E0898F9A8FAB8FBC8F80910B01A7
:1046200090910C01B0E0A0E08D8F9E8FAF8FB8A36A
:104630008091090190910A01092E000CAA0BBB0B75
:1046400089A39AA3ABA3BCA3DE0111965D0109EE79
:10465000C02E03E0D02E1AEF0FEF8EE1982EF50159
:1046600041905190619071905F0141145104610437
:104670007104F1F00F5F099D70011124F60185911D
:104680009491B701635A7F4F0E94BF06FEE6EF0E7A
:10469000F11C123008F0C6C123E044E06EE077E080
:1046A000C2010E943906B7018EE097E00E94CA0657
:1046B00022E0C20ED11C1F5F133089F66091D40432
:1046C0007091D50490E080E020E04EE650E00E943A
:1046D000020780911301813009F075C00E94ED0836
:1046E00087E980930E0723E044E06FE077E0809154
:1046F0007802909179020E94390619EA1093130703
:104700001092140764E370E08EE097E00E94CA06FE
:104710008FEB80930E0723E044E06FE077E0809119
:104720007302909174020E9439061093130710923D
:1047300014076CE270E08EE097E00E94CA0611EE6A
:10474000E12E13E0F12E0DE510E0F7018591949133
:10475000B8010E94BF0632E0E30EF11C025E1F4F5B
:10476000053D110591F78091D1064AE06EE077E0B2
:1047700090E00E94603561E770E00E94CA06809177
:10478000D3064AE06EE077E090E00E9460356FE883
:1047900070E00E94CA068091DB064AE06EE077E096
:1047A00090E00E9460356DEA70E00E94CA06809138
:1047B000D2064AE06EE077E090E00E9460356BEC54
:1047C00070E00E94CA0680911301823009F05EC039
:1047D0004AE06EE077E080917102909172020E944F
:1047E00060350E942E06E82FF0E0E25FF84F95E278
:1047F00090838F5FE82FF0E0E25FF84F108265E36F
:1048000070E08EE097E00E94CA06EBEDF3E0859140
:1048100094916DE570E00E94BF06EDEDF3E08591A7
:1048200094916BE770E00E94BF06EFEDF3E0859195
:10483000949169E970E00E94BF06809195068823F3
:1048400009F4F7C04AE06EE077E090E00E9460353E
:1048500061E770E00E94CA064AE06EE077E080916E
:104860005502909156020E9460356FE870E00E94F8
:10487000CA064AE06EE077E08091530290915402BC
:104880000E9460356DEA70E00E94CA0680911301B3
:10489000833009F046C06091F0047091F10480917A
:1048A000F2049091F3040E946137CB0123E044E0CD
:1048B0006EE077E00E9439068AE980931207109231
:1048C000130764E370E08EE097E00E94CA06E7ED0C
:1048D000F3E0859194916DE570E00E94BF06E9EDEB
:1048E000F3E0859194916BE770E00E94BF064AE087
:1048F0006EE077E080915102909152020E94603503
:1049000061E770E00E94CA064AE06EE077E08091BD
:104910004F02909150020E9460356FE870E00E9453
:10492000CA0680911301843009F058C08091F106C5
:1049300090E09EA38DA38091F20690E098A78FA3AC
:104940008091F30690E09AA789A78091F40690E001
:104950009CA78BA78091DD0690E09EA78DA78091F4
:10496000DE0690E098AB8FA7B9ECCB2EB3E0DB2E40
:104970007E0145E2E40EF11CB12C0DE510E0F601DC
:1049800085919491B8010E94BF0656E0B51669F072
:104990004AE06EE077E0D7018D919C910E946035EE
:1049A000B8016C5E7F4F0E94CA06B394B2E0CB0E92
:1049B000D11C025E1F4FE2E0EE0EF11CF7E0BF12C9
:1049C000DECFE091D906F0E0EE0FFF1FEB53FC4F76
:1049D0008591949165E271E00E94BF068091130178
:1049E000853014F010921301809111018A3031F555
:1049F00080911201833009F472C0813009F472C0D1
:104A0000823009F072C080E791E020919206222363
:104A100029F086589D4F23E0DC012C9381E08093A0
:104A2000D3047CCC20E040E0C301B2010E94D90B4A
:104A30003ACE61E770E08AE691E00CCF8A3008F068
:104A400054C090911301913081F493E0909312013E
:104A5000853019F48AE08093110180911101893029
:104A600089F584E0809311012DC0923071F493E0B8
:104A700090931201843019F48AE08093110180919F
:104A800011018930F9F483E0EDCF933069F490930C
:104A90001201893019F482E0809311018091110193
:104AA000833081F48AE0DECF9430F9F493E0909380
:104AB0001201893019F487E080931101809111016E
:104AC000883081F32091110130E02E5F3F4F4EE19D
:104AD000429FC001439F900D1124469696CF8AE7CE
:104AE00091E093CF8AE691E090CF90E080E08DCF87
:104AF0000E94290B8091D304811110CCA090E20573
:104B0000B090E3050091E0051091E1058AEF8093F4
:104B10000E07C501BAE0AB16B10454F06AE070E0CC
:104B20000E94E239CB012DE220930F0762E009C019
:104B300066EF7FEF0E94E239CB0161E01A141B049B
:104B400094F370E0625F784F4AE00E9460358FE036
:104B50000E941E06882349F06091820470918304AC
:104B600071708EE097E00E94CA068BEF80930E076B
:104B7000C8010A3011053CF06AE070E00E94E23999
:104B8000CB0161E00BC066EF7FEF0E94E239CB0101
:104B900017FFF7CF2DE220930F0762E070E0625F0E
:104BA000784F4AE00E94603580E10E941E0688230B
:104BB00049F0609184047091850471708EE097E0F3
:104BC0000E94CA068091F605811104C01092F10579
:104BD0001092F005E090F005F090F10580916004EE
:104BE000909161049701215F3F4F281739070CF01E
:104BF0002AC10E945C04F0926104E09260048091FA
:104C00000E018150803108F41CC180930E01C090C8
:104C1000E805D090E905E090EA05F090EB05809179
:104C20005C0490915D04A0915E04B0915F04B701B3
:104C3000A6014C5E5F4F6F4F7F4F481759076A07B9
:104C40007B070CF015C10E945C04C0925C04D092FA
:104C50005D04E0925E04F0925F0480910D0181504A
:104C6000803108F403C180930D01809198049091E4
:104C700099049170892B29F483E180930E0180932C
:104C80000D016090960470909704E1E07E220C374D
:104C9000FCEF1F070CF007C1085F184FB194A194F7
:104CA000B10889E10E941E06882309F49AC0809108
:104CB0005A0480FF8BC0C50138E3A3163FEFB3064B
:104CC00014F488E39FEF893C910514F088EC90E0A0
:104CD0009C01265F3F4F37FF02C0295F3F4F63E0D3
:104CE000359527956A95E1F744245524421A530ACD
:104CF0004091020749AF40E074E0272E312CE9E0F3
:104D00008E2E912C443009F445E0A42EB12CC10123
:104D10008A199B09809F9001819F300D909F300DD3
:104D2000112437FF02C0215C3F4F56E0359527958F
:104D30005A95E1F7240D351D275D3F4F223531058A
:104D400008F040C0C901B4010E94E2395EE1569FFB
:104D5000F001579FF00D1124A60CB71CEA0DFB1DA6
:104D6000BF016C577109603E91E0790728F46658DD
:104D70007D4F8058DB018C93B9ADBB2319F18EEFC9
:104D8000840F8530F8F4CF01865D9109803E51E0B3
:104D9000950758F4BC0166587D4F5B01C901B40109
:104DA0000E94E2398058D5018C93B297E03EB1E081
:104DB000FB0740F4E658FD4FC901B4010E94E239F7
:104DC000805880834F5F493009F09CCFF301E6584B
:104DD000FD4FDF01119786E28C938CEB81838EE788
:104DE00080838AE10E941E06882309F4E1C0209195
:104DF000E806B091D506AB2FA19500910E01109158
:104E00000D01022E000C330BC30186589D4F4EE15D
:104E1000B42EB301621B730BBA170CF44CC0EB2D0C
:104E2000AE02A0011124FA01E658FD4FE60FF71F6C
:104E30000083480F591FFA01E20FF31F1083AF5F81
:104E4000EBCF85E1E2CE0F968E159F050CF0DFCEFD
:104E50000E945C04F0926104E092600480910E0173
:104E60008F5F863108F4D1CE80E1CFCE85E1FBCED5
:104E70004496A11DB11D8C159D05AE05BF050CF016
:104E8000F4CE0E945C04C0925C04D0925D04E09277
:104E90005E04F0925F0480910D018F5F863108F40B
:104EA000E2CE80E1E0CE053823E012070CF4F9CE23
:104EB00008501740F3CEF301E21BF30BE558FD4F0A
:104EC00043E04083820F931FFC01319782E080838F
:104ED00086E20E941E06882309F46AC06091CA0512
:104EE0007091CB058091CC059091CD056115710530
:104EF0008105910509F4D3C30E9497374B015C01EA
:104F0000C701B60124E630E040E050E00E94AB3536
:104F1000CA01B9010E949937A50194010E94863601
:104F200020E030E84EE054E40E94BC380E94613733
:104F300020E530E0A901461B570BBA014932510563
:104F400014F068E270E0683D5FEF750714F468EDF7
:104F50007FEF072E000C880B990B685D7F4F8F4FFA
:104F60009F4F23E0660F771F881F991F2A95D1F75F
:104F700020E530E040E050E00E94AB35822FE09128
:104F8000B004F091B104F170E658FD4FDF015E9777
:104F90009CED9C939083968F63E00E94C039815072
:104FA0006EE18602E00DF11D11248FED891B8083D7
:104FB000009178021091790280910B0190910C017F
:104FC0000817190720F410930C0100930B0180912E
:104FD000CA06882309F465C320917702C8016DE2EF
:104FE00070E00E94CE396F5F261718F42F5F209370
:104FF0007702809177029091CD06899FC00111249C
:1050000090937602809375028091E40697E9F92ED9
:10501000882371F1E091770270E2E79F600111242B
:105020008AE2E89FF001112496010C151D0538F065
:105030009F01225031090217130708F49801F12C3F
:10504000E12C50E040E02C193D094E095F09A7E032
:10505000B0E00E94CA3531979F0150E040E02C1922
:105060003D094E095F090E94AB3586E9F82EF21A18
:1050700080917502909176020817190720F48091AB
:10508000910681111CC0A80170E060E0EE24E39459
:1050900009EA2F2D85E190E00E94450C609177028E
:1050A00070E080917802909179020E94CE39AB0134
:1050B00070E060E02F2D84E390E00E94450C409169
:1050C0007302509174028091CB068417150629F063
:1050D00020F08091910681110AC070E060E0EE241A
:1050E000E39409EA2FEB86E190E00E94450C4091A1
:1050F0007102509172028091090190910A01481742
:1051000059073CF41416150624F450930A014093F1
:1051100009018091CC06882341F08417150629F0F7
:1051200024F08091910681110BC0052E000C660BB6
:10513000770BE12C05E22AEB83E190E00E94450C1D
:10514000C090F004D090F104E090F204F090F304E9
:1051500060916F027091700290E080E00E9497373A
:10516000A70196010E94E53687FF08C0C701B60176
:105170000E9468377093700260936F021091DE0690
:105180001123E1F020E030E040E251E4C701B60134
:105190000E94EF364B015C01612F70E090E080E0EF
:1051A0000E9499379B01AC01C501B4010E94AF3840
:1051B000181624F48091910681110EC0C701B60122
:1051C0000E946137AB01BC01EE24E3940AE920E0C0
:1051D00087E190E00E94450C1091DD0620E030E070
:1051E00044EB53E46091F4047091F5048091F6046B
:1051F0009091F7040E94EF360E946137112359F015
:10520000A4E61A9FA00111244617570724F4209101
:10521000910621110BC0AB01770F660B770BE12CC8
:1052200004EA20E088E190E00E94450C80E00E94C2
:105230003E0781E00E943E076091780270917902FA
:1052400090E080E00E9497372091F0043091F104C3
:105250004091F2045091F3040E94BC3820E030E009
:1052600048EC52E40E94EF360E946837AB0170E0D0
:1052700060E0E12C0BE72CEF85E290E00E94450C0A
:105280008091E2066091F0057091F105811111C2E3
:10529000072E000C880B990B0E9499372CEB34E7F2
:1052A00043E15DE30E94BC380E9468378B01672BA5
:1052B00071F1609178027091790290E080E00E9433
:1052C00097372091F0043091F1044091F20450910D
:1052D000F3040E94BC386B017C018AE0809FB0011E
:1052E000819F700D112490E080E00E9497379B0110
:1052F000AC01C701B6010E94EF360E946837AB01CE
:10530000BC01483EB3E05B076105710520F047EE44
:1053100053E060E070E0E12C00E029EF8AE290E0E9
:105320000E94450C00910F0110911001011511050B
:1053300011F16091F4047091F5048091F60490915C
:10534000F7040E94683746E0409F9001419F300D6E
:10535000112450E040E00E94D535273EE3E03E07AF
:1053600050F4BA01A9016627772700E02DEF8BE200
:1053700090E00E94450C60916205709163058091F8
:10538000FB068617170624F480919106811127C029
:105390001091E2061123A1F0072E000C880B990B47
:1053A0000E94993726E636E646EE5FE30E94BC3857
:1053B00020E030E040E052E40E9407360E9461376E
:1053C000E12FF0E0E25CFE4FAB01770F660B770B4D
:1053D000E12C008126EC84E190E00E94450C8EE0F7
:1053E0000E941E06882309F4B3C08091D906882341
:1053F00009F4AEC08091F605811166C18091060561
:10540000909107058260909307058093060584E0DC
:105410008093BB06209178023091790280917502C9
:10542000909176022817390748F4809106059091EB
:1054300007058064909307058093060580915A04C0
:1054400083FF1CC08091DF05853048F480910605FC
:1054500090910705806290930705809306058091DF
:105460009F0681110BC080910605909107058F7CE6
:10547000992788609093070580930605C0900605DC
:10548000D09007058091080590910905892B21F49A
:10549000D0920905C0920805E0900805F090090532
:1054A000002711270E191F090E211F210E945C04DD
:1054B000AB01BC018091A9069091AA06A091AB0610
:1054C000B091AC068C509E4FAF4FBF4F84179507DD
:1054D000A607B707B0F4E114F10449F0C8018095BC
:1054E0009095E822F922F0920905E09208050E94C1
:1054F0005C046093A9067093AA068093AB06909310
:10550000AC06E0E090E080E041E050E09A01082E37
:1055100002C0220F331F0A94E2F720233123232BEA
:1055200009F0E82F01968930910581F7F2E0CF1656
:10553000D10470F0F0E0EE0FFF1FE85AFB4F8591A9
:105540009491609180047091810471700E94BF06F3
:1055500080919F0590E0880F991FFC01E056FA4F5B
:1055600040815181209106013091070124173507B0
:1055700030F4208131813093070120930601FC0132
:10558000E056FA4F4081518120910401309105018C
:105590004217530730F42081318130930501209365
:1055A000040120910601309107012330384030F08A
:1055B00022E038E030930701209306012091040196
:1055C00030910501263B334030F426EB33E0309335
:1055D000050120930401FC01E056FA4F208131813E
:1055E0008091DC0600E081111FC0C0900401D090C2
:1055F0000501F12CE12C2081318150E040E02C1993
:105600003D094E095F09A4E6B0E00E94CA35209129
:1056100006013091070150E040E02C193D094E0988
:105620005F090E94AB3505E28091F605811103C048
:1056300000E330E020E0A90170E060E0E12C28EC1C
:105640008BE090E00E94450C87E20E941E068823B2
:1056500009F463C08091DA06823009F05BC0809162
:105660009306909194062091DE043091DF04AC0102
:10567000445C5F4F4217530708F04FC0805C9F4F58
:105680008217930720F43093940620939306809119
:10569000B2049091B30491700E94F4073EC080E080
:1056A0006ECC8091D206809377028091D10690E0F3
:1056B000A7CC072E000C880B990B0E9499372DED73
:1056C0003FE347EB5CE3EECD8091BB068823C1F05E
:1056D0008091E90681110E94D40680919206811181
:1056E00037CF809106059091070584609093070558
:1056F00080930605809108018150809308018ACE2D
:10570000809106059091070581609093070580932D
:10571000060580CE813009F4BACF88E00E941E06CB
:105720008823D9F08091EE059091EF05880F991F9D
:10573000880F991F83509D4F6AE570E00E94E239FF
:10574000625C7B4F8091740490917504917049E084
:1057500050E086589D4F0E9450354091EE05509183
:10576000EF0557FF02C048595E4F052E000C660B2F
:10577000770BE12C0DEB23EF87E090E00E94450CC6
:1057800085E00E941E06882389F02091D80530917B
:10579000D9054091DA055091DB05AAE0B0E00E94FE
:1057A000CA352EEB45E050E00E94280D89E00E94AA
:1057B0001E068823A9F06091E8057091E9058091A3
:1057C000EA059091EB052AE030E040E050E00E94CD
:1057D000AB35CA01B9012FE349E050E00E94280D22
:1057E0001091E2068091EC059091ED05112309F4EA
:1057F0007CC0BC01990F880B990B0E9499372AE154
:105800003AEF47EA5EE30E94BC380E946137E12F1D
:10581000F0E0E45CFE4FAB01770F660B770BEE24F4
:10582000E394008128EF89E290E00E94450C8AE031
:105830000E941E06882309F46FC0209178043091DD
:10584000790431700091EC051091ED05902F812FB6
:105850000A366FEF160714F49AE68FEF4091DF06D1
:10586000E92FF82FE739F10514F0E6E9F0E0642FAD
:1058700070E056E9E52EF12CC7010E94E239CF0114
:105880000E94E239D62EFC01C62E83E0489FB0016B
:105890001124C7010E94E239CF010E94E239962FFC
:1058A00080E07EE1F901E658FD4FA9E8FA2EBFE855
:1058B000EB2EA82FB0E04C2D0C2C000C550B57FFF5
:1058C00003C0519541955109A417B507C4F4879FAA
:1058D000A0011124101611066CF4D901A41BB50BFC
:1058E000A658BD4FEC928F5FE4CF6AE070E00E9453
:1058F000E2398DCF4E0F5F1FDA01FC92F4CF99236E
:1059000059F0BD2DEEE1BE02201931091124F90133
:10591000E658FD4F645760831091DF05153020F481
:105920008091910681111BC080E00E941E06882391
:10593000B1F08EE180930E078FE180930F074AE06C
:1059400060E177E0812F90E00E946035609164040F
:105950007091650471708EE097E00E94CA0681E044
:105960000E941E06882351F120916604309167043D
:1059700031708091EE059091EF05845E9D4F4091CE
:10598000C8055091C905841B950B880F991F880F76
:10599000991F8D966AE570E00E94E239CB0160E1C3
:1059A00070E00E94E239805A9F4F80930E07109258
:1059B0000F07B9018EE097E00E94CA06C090CA05A1
:1059C000D090CB05E090CC05F090CD058091E2061B
:1059D000882371F0C701B6010E94973721EA38EF9A
:1059E00041E550E40E94BC380E9468376B017C019D
:1059F00080916B0290916C02A0916D02B0916E0249
:105A00008C159D05AE05BF0598F48C599F4FAF4F7F
:105A1000BF4F8C159D05AE05BF0510F46C017D01CF
:105A2000C0926B02D0926C02E0926D02F0926E0214
:105A300082E00E941E06882341F11091F106112395
:105A4000A9F0C701B60124E630E040E050E00E9432
:105A5000D535812F90E0B0E0A0E0281739074A073C
:105A60005B0720F08091910681110FC02AE741E089
:105A7000C701B6010E94D90B609168047091690456
:105A800071708EE097E00E94CA068EE20E941E06A8
:105A90008823A9F06091F8047091F9048091FA04C8
:105AA0009091FB042EEF41E00E94D90B6091C0045D
:105AB0007091C10471708EE097E00E94CA0680E385
:105AC0000E941E068823A9F060916B0270916C02FF
:105AD00080916D0290916E0227EF41E00E94D90BF8
